{
  "contractName": "KingOfTheForestCoin",
  "abi": [
    {
      "inputs": [],
      "name": "totalSupply",
      "outputs": [
        {
          "internalType": "uint256",
          "name": "",
          "type": "uint256"
        }
      ],
      "stateMutability": "view",
      "type": "function",
      "constant": true
    }
  ],
  "bytecode": "0x6080604052620186a060005534801561001757600080fd5b5060b3806100266000396000f3fe6080604052348015600f57600080fd5b506004361060285760003560e01c806318160ddd14602d575b600080fd5b60336047565b604051603e91906064565b60405180910390f35b60005481565b6000819050919050565b605e81604d565b82525050565b6000602082019050607760008301846057565b9291505056fea2646970667358221220c959198ec8a54768397fe7c99b2749b2b984c62ca9f282d2d96a6082204a356364736f6c634300080a0033",
  "immutableReferences": {},
  "source": "// SPDX-License-Identifier: MIT\npragma solidity >=0.4.22 <0.9.0;\n\ncontract KingOfTheForestCoin{\n    //constructor\n    //set total number of tokens\n    //read the total number of tokens\n    uint256 public totalSupply =100000;\n    \n}",
  "sourcePath": "/Users/jamespritchard/Desktop/reactDapp/TokenCreation+Sale/contracts/KingOfTheForestCoin.sol",
  "compiler": {
    "name": "solc",
    "version": "0.8.10+commit.fc410830.Emscripten.clang"
  },
  "schemaVersion": "3.4.4",
  "updatedAt": "2022-01-13T22:39:20.721Z",
  "networkType": "ethereum",
  "devdoc": {
    "kind": "dev",
    "methods": {},
    "version": 1
  },
  "userdoc": {
    "kind": "user",
    "methods": {},
    "version": 1
  }
}