{
  "contractName": "KotfSale",
  "abi": [
    {
      "inputs": [
        {
          "internalType": "contract KingOfTheForestCoin",
          "name": "_tokenContract",
          "type": "address"
        },
        {
          "internalType": "uint256",
          "name": "_tokenPrice",
          "type": "uint256"
        }
      ],
      "stateMutability": "nonpayable",
      "type": "constructor"
    },
    {
      "inputs": [],
      "name": "tokenContract",
      "outputs": [
        {
          "internalType": "contract KingOfTheForestCoin",
          "name": "",
          "type": "address"
        }
      ],
      "stateMutability": "view",
      "type": "function",
      "constant": true
    },
    {
      "inputs": [],
      "name": "tokenPrice",
      "outputs": [
        {
          "internalType": "uint256",
          "name": "",
          "type": "uint256"
        }
      ],
      "stateMutability": "view",
      "type": "function",
      "constant": true
    }
  ],
  "bytecode": "0x608060405234801561001057600080fd5b506040516103623803806103628339818101604052810190610032919061016c565b336000806101000a81548173ffffffffffffffffffffffffffffffffffffffff021916908373ffffffffffffffffffffffffffffffffffffffff16021790555081600160006101000a81548173ffffffffffffffffffffffffffffffffffffffff021916908373ffffffffffffffffffffffffffffffffffffffff1602179055508060028190555050506101ac565b600080fd5b600073ffffffffffffffffffffffffffffffffffffffff82169050919050565b60006100f1826100c6565b9050919050565b6000610103826100e6565b9050919050565b610113816100f8565b811461011e57600080fd5b50565b6000815190506101308161010a565b92915050565b6000819050919050565b61014981610136565b811461015457600080fd5b50565b60008151905061016681610140565b92915050565b60008060408385031215610183576101826100c1565b5b600061019185828601610121565b92505060206101a285828601610157565b9150509250929050565b6101a7806101bb6000396000f3fe608060405234801561001057600080fd5b50600436106100365760003560e01c806355a373d61461003b5780637ff9b59614610059575b600080fd5b610043610077565b6040516100509190610122565b60405180910390f35b61006161009d565b60405161006e9190610156565b60405180910390f35b600160009054906101000a900473ffffffffffffffffffffffffffffffffffffffff1681565b60025481565b600073ffffffffffffffffffffffffffffffffffffffff82169050919050565b6000819050919050565b60006100e86100e36100de846100a3565b6100c3565b6100a3565b9050919050565b60006100fa826100cd565b9050919050565b600061010c826100ef565b9050919050565b61011c81610101565b82525050565b60006020820190506101376000830184610113565b92915050565b6000819050919050565b6101508161013d565b82525050565b600060208201905061016b6000830184610147565b9291505056fea264697066735822122002b35588f95e35149c12c291bba9848890975648562fd9f974bf68063133a37f64736f6c634300080a0033",
  "immutableReferences": {},
  "source": "// SPDX-License-Identifier: MIT\npragma solidity >=0.4.22 <0.9.0;\nimport \"./KingOfTheForestCoin.sol\";\n\ncontract KotfSale {\n    address admin;\n    KingOfTheForestCoin public tokenContract;\n    uint256 public tokenPrice;\n    constructor(KingOfTheForestCoin _tokenContract, uint256 _tokenPrice){\n        //assign admin\n        admin = msg.sender;\n\n        //Token Contract\n        tokenContract = _tokenContract;\n\n        //Coin Price\n        tokenPrice = _tokenPrice;\n    } \n\n}",
  "sourcePath": "/Users/jamespritchard/Desktop/reactDapp/KingoftheForestCoin-1/contracts/KotfSale.sol",
  "compiler": {
    "name": "solc",
    "version": "0.8.10+commit.fc410830.Emscripten.clang"
  },
  "schemaVersion": "3.4.4",
  "updatedAt": "2022-01-15T23:47:40.218Z",
  "networkType": "ethereum",
  "devdoc": {
    "kind": "dev",
    "methods": {},
    "version": 1
  },
  "userdoc": {
    "kind": "user",
    "methods": {},
    "version": 1
  }
}